S00E00007461736B31332E73726563FF
S11300000C9434000C943E000C943E000C943E007E
S11300100C943E000C943E000C943E000C943E0064
S11300200C943E000C943E000C943E000C943E0054
S11300300C943E000C943E000C943E000C943E0044
S11300400C943E000C943E000C943E000C943E0034
S11300500C943E000C943E000C943E000C943E0024
S11300600C943E000C943E0011241FBECFEFD8E048
S1130070DEBFCDBF0E9467000C946C000C9400009E
S11300808CB580648CBD8CB58F778CBD8CB58F7D21
S11300908CBD8CB580618CBD8CB588608CBD8CB5F5
S11300A08B7F8CBD8CB58D7F8CBD8CB58E7F8CBDCC
S11300B084B18C6684B908952E9880E08EBD2E9804
S11300C08EBD0DB407FEFDCF8EB52E9A08950E9405
S10F00D040000E945C00FDCFF894FFCFBC
S9030000FC
