:100000000C9434000C9449000C9449000C94490061
:100010000C9449000C9449000C9449000C9449003C
:100020000C9449000C9449000C9449000C9449002C
:100030000C9449000C9449000C945D000C94490008
:100040000C944B000C9449000C9449000C9449000A
:100050000C9449000C9449000C9449000C944900FC
:100060000C9449000C94490011241FBECFEFD8E036
:10007000DEBFCDBF11E0A0E0B1E0E2E0F1E002C000
:1000800005900D92A030B107D9F70E947C000C9426
:100090007F000C9400001F920F920FB60F92112454
:1000A0008F939F939BB182E089278BB99F918F910A
:1000B0000F900FBE0F901F9018951F920F920FB6C2
:1000C0000F9211248F939F939BB182E089278BB964
:1000D0009F918F910F900FBE0F901F901895519A7E
:1000E000599881E085BDEEE6F0E0808183608083F1
:1000F00088EC87BD789408950E946F00FFCFF89434
:02010000FFCF2F
:00000001FF
