:100000000C9434000C943E000C943E000C943E0082
:100010000C943E000C943E000C943E000C943E0068
:100020000C943E000C943E000C943E000C943E0058
:100030000C943E000C943E000C943E000C943E0048
:100040000C943E000C943E000C943E000C943E0038
:100050000C943E000C943E000C943E000C943E0028
:100060000C943E000C943E0011241FBECFEFD8E04C
:10007000DEBFCDBF0E946C000C9470000C94000099
:100080008CB580648CBD8CB58F778CBD8CB58F7D25
:100090008CBD8CB580618CBD8CB588608CBD8CB5F9
:1000A0008B7F8CBD8CB58D7F8CBD8CB58E7F8CBDD0
:1000B00084B18C6684B9089581E02E988EBD0DB40C
:1000C00007FEFDCF9EB52E9AE3EDF0E33197F1F7F1
:1000D00000C000008F5FF1CF0E9440000E945C00D2
:0400E000F894FFCFC2
:00000001FF
