S01700004763634170706C69636174696F6E312E737265635B
S11300000C9434000C9449000C9449000C9449005D
S11300100C9449000C9449000C9449000C94490038
S11300200C9449000C9449000C9449000C94490028
S11300300C9449000C9449000C9449000C94490018
S11300400C9449000C9449000C9449000C94490008
S11300500C9449000C9449000C9449000C944900F8
S11300600C9449000C94490011241FBECFEFD8E032
S1130070DEBFCDBF11E0A0E0B1E0ECEBF0E002C0E8
S113008005900D92A030B107D9F70E9459000C9445
S11300905C000C940000559A569A84B5806C84BD1B
S11300A084B5836084BD85B5816085BD88EC87BDDA
S10F00B008950E944B00FFCFF894FFCF8E
S9030000FC
